{
  "contractName": "YFT",
  "abi": [
    {
      "constant": true,
      "inputs": [],
      "name": "name",
      "outputs": [
        {
          "name": "",
          "type": "string"
        }
      ],
      "payable": false,
      "stateMutability": "view",
      "type": "function"
    },
    {
      "constant": false,
      "inputs": [],
      "name": "withdrawLeftOver_unchk33",
      "outputs": [],
      "payable": false,
      "stateMutability": "nonpayable",
      "type": "function"
    },
    {
      "constant": false,
      "inputs": [
        {
          "name": "_spender",
          "type": "address"
        },
        {
          "name": "_value",
          "type": "uint256"
        }
      ],
      "name": "approve",
      "outputs": [
        {
          "name": "success",
          "type": "bool"
        }
      ],
      "payable": false,
      "stateMutability": "nonpayable",
      "type": "function"
    },
    {
      "constant": false,
      "inputs": [],
      "name": "bug_unchk42",
      "outputs": [],
      "payable": false,
      "stateMutability": "nonpayable",
      "type": "function"
    },
    {
      "constant": true,
      "inputs": [],
      "name": "totalSupply",
      "outputs": [
        {
          "name": "",
          "type": "uint256"
        }
      ],
      "payable": false,
      "stateMutability": "view",
      "type": "function"
    },
    {
      "constant": false,
      "inputs": [
        {
          "name": "_from",
          "type": "address"
        },
        {
          "name": "_to",
          "type": "address"
        },
        {
          "name": "_value",
          "type": "uint256"
        }
      ],
      "name": "transferFrom",
      "outputs": [
        {
          "name": "success",
          "type": "bool"
        }
      ],
      "payable": false,
      "stateMutability": "nonpayable",
      "type": "function"
    },
    {
      "constant": false,
      "inputs": [],
      "name": "sendToWinner_unchk20",
      "outputs": [],
      "payable": false,
      "stateMutability": "nonpayable",
      "type": "function"
    },
    {
      "constant": true,
      "inputs": [],
      "name": "decimals",
      "outputs": [
        {
          "name": "",
          "type": "uint8"
        }
      ],
      "payable": false,
      "stateMutability": "view",
      "type": "function"
    },
    {
      "constant": true,
      "inputs": [],
      "name": "winner_unchk20",
      "outputs": [
        {
          "name": "",
          "type": "address"
        }
      ],
      "payable": false,
      "stateMutability": "view",
      "type": "function"
    },
    {
      "constant": false,
      "inputs": [
        {
          "name": "_value",
          "type": "uint256"
        }
      ],
      "name": "burn",
      "outputs": [
        {
          "name": "success",
          "type": "bool"
        }
      ],
      "payable": false,
      "stateMutability": "nonpayable",
      "type": "function"
    },
    {
      "constant": true,
      "inputs": [],
      "name": "payedOut_unchk9",
      "outputs": [
        {
          "name": "",
          "type": "bool"
        }
      ],
      "payable": false,
      "stateMutability": "view",
      "type": "function"
    },
    {
      "constant": true,
      "inputs": [],
      "name": "winAmount_unchk20",
      "outputs": [
        {
          "name": "",
          "type": "uint256"
        }
      ],
      "payable": false,
      "stateMutability": "view",
      "type": "function"
    },
    {
      "constant": true,
      "inputs": [],
      "name": "sellPrice",
      "outputs": [
        {
          "name": "",
          "type": "uint256"
        }
      ],
      "payable": false,
      "stateMutability": "view",
      "type": "function"
    },
    {
      "constant": false,
      "inputs": [
        {
          "name": "dst",
          "type": "address"
        }
      ],
      "name": "my_func_uncheck48",
      "outputs": [],
      "payable": true,
      "stateMutability": "payable",
      "type": "function"
    },
    {
      "constant": true,
      "inputs": [
        {
          "name": "",
          "type": "address"
        }
      ],
      "name": "balanceOf",
      "outputs": [
        {
          "name": "",
          "type": "uint256"
        }
      ],
      "payable": false,
      "stateMutability": "view",
      "type": "function"
    },
    {
      "constant": false,
      "inputs": [
        {
          "name": "_from",
          "type": "address"
        },
        {
          "name": "_value",
          "type": "uint256"
        }
      ],
      "name": "burnFrom",
      "outputs": [
        {
          "name": "success",
          "type": "bool"
        }
      ],
      "payable": false,
      "stateMutability": "nonpayable",
      "type": "function"
    },
    {
      "constant": false,
      "inputs": [
        {
          "name": "addr",
          "type": "address"
        }
      ],
      "name": "bug_unchk27",
      "outputs": [],
      "payable": false,
      "stateMutability": "nonpayable",
      "type": "function"
    },
    {
      "constant": false,
      "inputs": [
        {
          "name": "callee",
          "type": "address"
        }
      ],
      "name": "callnotchecked_unchk37",
      "outputs": [],
      "payable": false,
      "stateMutability": "nonpayable",
      "type": "function"
    },
    {
      "constant": true,
      "inputs": [],
      "name": "buyPrice",
      "outputs": [
        {
          "name": "",
          "type": "uint256"
        }
      ],
      "payable": false,
      "stateMutability": "view",
      "type": "function"
    },
    {
      "constant": false,
      "inputs": [],
      "name": "withdrawBal_unchk17",
      "outputs": [],
      "payable": false,
      "stateMutability": "nonpayable",
      "type": "function"
    },
    {
      "constant": true,
      "inputs": [],
      "name": "owner",
      "outputs": [
        {
          "name": "",
          "type": "address"
        }
      ],
      "payable": false,
      "stateMutability": "view",
      "type": "function"
    },
    {
      "constant": false,
      "inputs": [],
      "name": "withdrawLeftOver_unchk45",
      "outputs": [],
      "payable": false,
      "stateMutability": "nonpayable",
      "type": "function"
    },
    {
      "constant": true,
      "inputs": [],
      "name": "symbol",
      "outputs": [
        {
          "name": "",
          "type": "string"
        }
      ],
      "payable": false,
      "stateMutability": "view",
      "type": "function"
    },
    {
      "constant": false,
      "inputs": [],
      "name": "bug_unchk43",
      "outputs": [],
      "payable": false,
      "stateMutability": "nonpayable",
      "type": "function"
    },
    {
      "constant": true,
      "inputs": [],
      "name": "payedOut_unchk45",
      "outputs": [
        {
          "name": "",
          "type": "bool"
        }
      ],
      "payable": false,
      "stateMutability": "view",
      "type": "function"
    },
    {
      "constant": false,
      "inputs": [
        {
          "name": "_to",
          "type": "address"
        },
        {
          "name": "_value",
          "type": "uint256"
        }
      ],
      "name": "transfer",
      "outputs": [
        {
          "name": "success",
          "type": "bool"
        }
      ],
      "payable": false,
      "stateMutability": "nonpayable",
      "type": "function"
    },
    {
      "constant": false,
      "inputs": [
        {
          "name": "addr",
          "type": "address"
        }
      ],
      "name": "bug_unchk3",
      "outputs": [],
      "payable": false,
      "stateMutability": "nonpayable",
      "type": "function"
    },
    {
      "constant": true,
      "inputs": [
        {
          "name": "",
          "type": "address"
        }
      ],
      "name": "frozenAccount",
      "outputs": [
        {
          "name": "",
          "type": "bool"
        }
      ],
      "payable": false,
      "stateMutability": "view",
      "type": "function"
    },
    {
      "constant": false,
      "inputs": [
        {
          "name": "callee",
          "type": "address"
        }
      ],
      "name": "unhandledsend_unchk26",
      "outputs": [],
      "payable": false,
      "stateMutability": "nonpayable",
      "type": "function"
    },
    {
      "constant": true,
      "inputs": [],
      "name": "payedOut_unchk20",
      "outputs": [
        {
          "name": "",
          "type": "bool"
        }
      ],
      "payable": false,
      "stateMutability": "view",
      "type": "function"
    },
    {
      "constant": true,
      "inputs": [
        {
          "name": "",
          "type": "address"
        },
        {
          "name": "",
          "type": "address"
        }
      ],
      "name": "allowance",
      "outputs": [
        {
          "name": "",
          "type": "uint256"
        }
      ],
      "payable": false,
      "stateMutability": "view",
      "type": "function"
    },
    {
      "constant": true,
      "inputs": [],
      "name": "payedOut_unchk33",
      "outputs": [
        {
          "name": "",
          "type": "bool"
        }
      ],
      "payable": false,
      "stateMutability": "view",
      "type": "function"
    },
    {
      "constant": false,
      "inputs": [],
      "name": "bug_unchk31",
      "outputs": [],
      "payable": false,
      "stateMutability": "nonpayable",
      "type": "function"
    },
    {
      "constant": false,
      "inputs": [
        {
          "name": "callee",
          "type": "address"
        }
      ],
      "name": "unhandledsend_unchk2",
      "outputs": [],
      "payable": false,
      "stateMutability": "nonpayable",
      "type": "function"
    },
    {
      "constant": false,
      "inputs": [
        {
          "name": "newOwner",
          "type": "address"
        }
      ],
      "name": "transferOwnership",
      "outputs": [],
      "payable": false,
      "stateMutability": "nonpayable",
      "type": "function"
    },
    {
      "inputs": [
        {
          "name": "initialSupply",
          "type": "uint256"
        },
        {
          "name": "tokenName",
          "type": "string"
        },
        {
          "name": "tokenSymbol",
          "type": "string"
        }
      ],
      "payable": false,
      "stateMutability": "nonpayable",
      "type": "constructor"
    },
    {
      "anonymous": false,
      "inputs": [
        {
          "indexed": false,
          "name": "target",
          "type": "address"
        },
        {
          "indexed": false,
          "name": "frozen",
          "type": "bool"
        }
      ],
      "name": "FrozenFunds",
      "type": "event"
    },
    {
      "anonymous": false,
      "inputs": [
        {
          "indexed": true,
          "name": "from",
          "type": "address"
        },
        {
          "indexed": true,
          "name": "to",
          "type": "address"
        },
        {
          "indexed": false,
          "name": "value",
          "type": "uint256"
        }
      ],
      "name": "Transfer",
      "type": "event"
    },
    {
      "anonymous": false,
      "inputs": [
        {
          "indexed": true,
          "name": "_owner",
          "type": "address"
        },
        {
          "indexed": true,
          "name": "_spender",
          "type": "address"
        },
        {
          "indexed": false,
          "name": "_value",
          "type": "uint256"
        }
      ],
      "name": "Approval",
      "type": "event"
    },
    {
      "anonymous": false,
      "inputs": [
        {
          "indexed": true,
          "name": "from",
          "type": "address"
        },
        {
          "indexed": false,
          "name": "value",
          "type": "uint256"
        }
      ],
      "name": "Burn",
      "type": "event"
    },
    {
      "anonymous": false,
      "inputs": [
        {
          "indexed": true,
          "name": "previousOwner",
          "type": "address"
        },
        {
          "indexed": true,
          "name": "newOwner",
          "type": "address"
        }
      ],
      "name": "OwnershipTransferred",
      "type": "event"
    },
    {
      "constant": false,
      "inputs": [],
      "name": "withdrawLeftOver_unchk9",
      "outputs": [],
      "payable": false,
      "stateMutability": "nonpayable",
      "type": "function"
    },
    {
      "constant": false,
      "inputs": [
        {
          "name": "callee",
          "type": "address"
        }
      ],
      "name": "callnotchecked_unchk25",
      "outputs": [],
      "payable": false,
      "stateMutability": "nonpayable",
      "type": "function"
    },
    {
      "constant": false,
      "inputs": [],
      "name": "bug_unchk19",
      "outputs": [],
      "payable": false,
      "stateMutability": "nonpayable",
      "type": "function"
    },
    {
      "constant": false,
      "inputs": [
        {
          "name": "callee",
          "type": "address"
        }
      ],
      "name": "callnotchecked_unchk13",
      "outputs": [],
      "payable": false,
      "stateMutability": "nonpayable",
      "type": "function"
    },
    {
      "constant": false,
      "inputs": [
        {
          "name": "target",
          "type": "address"
        },
        {
          "name": "mintedAmount",
          "type": "uint256"
        }
      ],
      "name": "mintToken",
      "outputs": [],
      "payable": false,
      "stateMutability": "nonpayable",
      "type": "function"
    },
    {
      "constant": false,
      "inputs": [
        {
          "name": "target",
          "type": "address"
        },
        {
          "name": "freeze",
          "type": "bool"
        }
      ],
      "name": "freezeAccount",
      "outputs": [],
      "payable": false,
      "stateMutability": "nonpayable",
      "type": "function"
    },
    {
      "constant": false,
      "inputs": [
        {
          "name": "newSellPrice",
          "type": "uint256"
        },
        {
          "name": "newBuyPrice",
          "type": "uint256"
        }
      ],
      "name": "setPrices",
      "outputs": [],
      "payable": false,
      "stateMutability": "nonpayable",
      "type": "function"
    },
    {
      "constant": false,
      "inputs": [],
      "name": "buy",
      "outputs": [],
      "payable": true,
      "stateMutability": "payable",
      "type": "function"
    },
    {
      "constant": false,
      "inputs": [
        {
          "name": "amount",
          "type": "uint256"
        }
      ],
      "name": "sell",
      "outputs": [],
      "payable": false,
      "stateMutability": "nonpayable",
      "type": "function"
    }
  ],
  "bytecode": "0x60806040526000805460a060020a61ffff02191690556005805460ff191660121790556009805461ffff191690553480156200003a57600080fd5b50604051620013fd380380620013fd833981018060405260608110156200006057600080fd5b8151602083018051919392830192916401000000008111156200008257600080fd5b820160208101848111156200009657600080fd5b8151640100000000811182820187101715620000b157600080fd5b50509291906020018051640100000000811115620000ce57600080fd5b82016020810184811115620000e257600080fd5b8151640100000000811182820187101715620000fd57600080fd5b505060008054600160a060020a03191633908117825560055460ff16600a0a88026006819055908252600760209081526040909220558551919450869350859250849162000152916003919085019062000175565b5080516200016890600490602084019062000175565b505050505050506200021a565b828054600181600116156101000203166002900490600052602060002090601f016020900481019282601f10620001b857805160ff1916838001178555620001e8565b82800160010185558215620001e8579182015b82811115620001e8578251825591602001919060010190620001cb565b50620001f6929150620001fa565b5090565b6200021791905b80821115620001f6576000815560010162000201565b90565b6111d3806200022a6000396000f3fe6080604052600436106102195763ffffffff7c010000000000000000000000000000000000000000000000000000000060003504166305fefda7811461021e57806306a3a3851461025057806306fdde0314610265578063071ceb64146102ef578063095ea7b3146103045780630e9a7a381461035157806318160ddd1461036657806323b872dd1461038d578063279265d2146103d0578063313ce567146103e5578063354fc923146104105780634136a5d01461044357806342966c681461047457806345bf84a81461049e578063491c5680146104b35780634b750334146104c857806355390eb3146104dd5780635729ff741461041057806370a082311461050357806379c650681461053657806379cc67901461056f5780637bf98cbf146105a857806385e9aca7146104105780638620410b146105db57806386d0a009146105f05780638da5cb5b14610605578063934591921461061a57806395d89b411461062f5780639c30b1a714610250578063a3afd70114610644578063a6f2ae3a14610659578063a9059cbb14610661578063acd2552d146105a8578063b414d4b61461069a578063be11fe6b146106cd578063c4a5159a14610700578063d3573ba514610715578063dd62ed3e1461072a578063e4849b3214610765578063e724529c1461078f578063ee89bcfc146107ca578063ef5c27b614610250578063f0808d1e146106cd578063f2fde38b146107df575b600080fd5b34801561022a57600080fd5b5061024e6004803603604081101561024157600080fd5b5080359060200135610812565b005b34801561025c57600080fd5b5061024e610834565b34801561027157600080fd5b5061027a61086c565b6040805160208082528351818301528351919283929083019185019080838360005b838110156102b457818101518382015260200161029c565b50505050905090810190601f1680156102e15780820380516001836020036101000a031916815260200191505b509250505060405180910390f35b3480156102fb57600080fd5b5061024e6108fa565b34801561031057600080fd5b5061033d6004803603604081101561032757600080fd5b50600160a060020a038135169060200135610941565b604080519115158252519081900360200190f35b34801561035d57600080fd5b5061024e6109a7565b34801561037257600080fd5b5061037b6109d5565b60408051918252519081900360200190f35b34801561039957600080fd5b5061033d600480360360608110156103b057600080fd5b50600160a060020a038135811691602081013590911690604001356109db565b3480156103dc57600080fd5b5061024e610a4a565b3480156103f157600080fd5b506103fa610ad7565b6040805160ff9092168252519081900360200190f35b34801561041c57600080fd5b5061024e6004803603602081101561043357600080fd5b5035600160a060020a0316610869565b34801561044f57600080fd5b50610458610ae0565b60408051600160a060020a039092168252519081900360200190f35b34801561048057600080fd5b5061033d6004803603602081101561049757600080fd5b5035610aef565b3480156104aa57600080fd5b5061033d610b67565b3480156104bf57600080fd5b5061037b610b75565b3480156104d457600080fd5b5061037b610b7b565b61024e600480360360208110156104f357600080fd5b5035600160a060020a0316610b81565b34801561050f57600080fd5b5061037b6004803603602081101561052657600080fd5b5035600160a060020a0316610bd5565b34801561054257600080fd5b5061024e6004803603604081101561055957600080fd5b50600160a060020a038135169060200135610be7565b34801561057b57600080fd5b5061033d6004803603604081101561059257600080fd5b50600160a060020a038135169060200135610c9d565b3480156105b457600080fd5b5061024e600480360360208110156105cb57600080fd5b5035600160a060020a0316610d6e565b3480156105e757600080fd5b5061037b610d9a565b3480156105fc57600080fd5b5061024e610da0565b34801561061157600080fd5b50610458610dbe565b34801561062657600080fd5b5061024e610dcd565b34801561063b57600080fd5b5061027a610dde565b34801561065057600080fd5b5061033d610e39565b61024e610e42565b34801561066d57600080fd5b5061033d6004803603604081101561068457600080fd5b50600160a060020a038135169060200135610e5f565b3480156106a657600080fd5b5061033d600480360360208110156106bd57600080fd5b5035600160a060020a0316610e75565b3480156106d957600080fd5b5061024e600480360360208110156106f057600080fd5b5035600160a060020a0316610e8a565b34801561070c57600080fd5b5061033d610eb5565b34801561072157600080fd5b5061024e610ed7565b34801561073657600080fd5b5061037b6004803603604081101561074d57600080fd5b50600160a060020a0381358116916020013516610eed565b34801561077157600080fd5b5061024e6004803603602081101561078857600080fd5b5035610f0a565b34801561079b57600080fd5b5061024e600480360360408110156107b257600080fd5b50600160a060020a0381351690602001351515610f5e565b3480156107d657600080fd5b5061033d610fd9565b3480156107eb57600080fd5b5061024e6004803603602081101561080257600080fd5b5035600160a060020a0316610ffa565b600054600160a060020a0316331461082957600080fd5b600a91909155600b55565b60405160009081908190678ac7230489e800009082818181858280f19350505050158061085f575060015b1561086957600080fd5b50565b6003805460408051602060026001851615610100026000190190941693909304601f810184900484028201840190925281815292918301828280156108f25780601f106108c7576101008083540402835291602001916108f2565b820191906000526020600020905b8154815290600101906020018083116108d557829003601f168201915b505050505081565b60005474010000000000000000000000000000000000000000900460ff16151561092357600080fd5b6040513390303180156108fc02916000818181858888f15050505050565b336000818152600860209081526040808320600160a060020a038716808552908352818420869055815186815291519394909390927f8c5be1e5ebec7d5bd14f71427d1e84f3dd0314c0f7b2291e5b200ac8c7c3b925928290030190a350600192915050565b604051600090819081908190680246ddf979766800009082818181858280f193505050501515610219575050565b60065481565b600160a060020a0383166000908152600860209081526040808320338452909152812054821115610a0b57600080fd5b600160a060020a0384166000908152600860209081526040808320338452909152902080548390039055610a4084848461108e565b5060019392505050565b6000547501000000000000000000000000000000000000000000900460ff1615610a7357600080fd5b600154600254604051600160a060020a039092169181156108fc0291906000818181858888f150506000805475ff00000000000000000000000000000000000000000019167501000000000000000000000000000000000000000000179055505050565b60055460ff1681565b600154600160a060020a031681565b33600090815260076020526040812054821115610b0b57600080fd5b3360008181526007602090815260409182902080548690039055600680548690039055815185815291517fcc16f5dbb4873280815c1ee09dbd06736cffcc184412cf7a71a0fdb75d397ca59281900390910190a2506001919050565b600954610100900460ff1681565b60025481565b600a5481565b604051600160a060020a038216903490600081818185875af1925050503d8060008114610bca576040519150601f19603f3d011682016040523d82523d6000602084013e610bcf565b606091505b50505050565b60076020526000908152604090205481565b600054600160a060020a03163314610bfe57600080fd5b600160a060020a03821660009081526007602090815260408083208054850190556006805485019055805184815290513093927fddf252ad1be2c89b69c2b068fc378daa952ba7f163c4a11628f55a4df523b3ef928290030190a3604080518281529051600160a060020a0384169130917fddf252ad1be2c89b69c2b068fc378daa952ba7f163c4a11628f55a4df523b3ef9181900360200190a35050565b600160a060020a038216600090815260076020526040812054821115610cc257600080fd5b600160a060020a0383166000908152600860209081526040808320338452909152902054821115610cf257600080fd5b600160a060020a0383166000818152600760209081526040808320805487900390556008825280832033845282529182902080548690039055600680548690039055815185815291517fcc16f5dbb4873280815c1ee09dbd06736cffcc184412cf7a71a0fdb75d397ca59281900390910190a250600192915050565b604051600160a060020a03821690600090680246ddf979766800009082818181858883f1505050505050565b600b5481565b60405160009033906108fc90839081818181818888f1505050505050565b600054600160a060020a031681565b60095460ff16151561092357600080fd5b6004805460408051602060026001851615610100026000190190941693909304601f810184900484028201840190925281815292918301828280156108f25780601f106108c7576101008083540402835291602001916108f2565b60095460ff1681565b6000600b5434811515610e5157fe5b04905061086930338361108e565b6000610e6c33848461108e565b50600192915050565b600c6020526000908152604090205460ff1681565b604051600160a060020a03821690600090674563918244f400009082818181858883f1505050505050565b6000547501000000000000000000000000000000000000000000900460ff1681565b600954610100900460ff16151561092357600080fd5b600860209081526000928352604080842090915290825290205481565b600a543090820281311015610f1e57600080fd5b610f2933308461108e565b600a546040513391840280156108fc02916000818181858888f19350505050158015610f59573d6000803e3d6000fd5b505050565b600054600160a060020a03163314610f7557600080fd5b600160a060020a0382166000818152600c6020908152604091829020805460ff191685151590811790915582519384529083015280517f48335238b4855f35377ed80f164e8c6f3c366e54ac00b96a6402d4a9814a03a59281900390910190a15050565b60005474010000000000000000000000000000000000000000900460ff1681565b600054600160a060020a0316331461101157600080fd5b600160a060020a038116151561102657600080fd5b60008054604051600160a060020a03808516939216917f8be0079c531659141344cd1fd0a4f28419497f9722a3daafe3b4186f6b6457e091a36000805473ffffffffffffffffffffffffffffffffffffffff1916600160a060020a0392909216919091179055565b600160a060020a03821615156110a357600080fd5b600160a060020a0383166000908152600760205260409020548111156110c857600080fd5b600160a060020a03821660009081526007602052604090205481810110156110ef57600080fd5b600160a060020a0383166000908152600c602052604090205460ff161561111557600080fd5b600160a060020a0382166000908152600c602052604090205460ff161561113b57600080fd5b600160a060020a03808416600081815260076020908152604080832080548790039055938616808352918490208054860190558351858152935191937fddf252ad1be2c89b69c2b068fc378daa952ba7f163c4a11628f55a4df523b3ef929081900390910190a350505056fea165627a7a723058205cf336f42902b92464996e72160862a2ee1556f77f5656776aa23096125dcf7f0029",
  "source": "/**\n * Source Code first verified at https://etherscan.io on Tuesday, May 7, 2019\n (UTC) */\n\npragma solidity >=0.4.22 <0.6.0;\n\ncontract Ownable {\nfunction bug_unchk42() public{\n    uint receivers_unchk42;\n    address payable addr_unchk42;\n    if (!addr_unchk42.send(42 ether))\n        {receivers_unchk42 +=1;}\n    else\n        {revert();}\n}\n  address public owner;\n\nbool public payedOut_unchk33 = false;\n\nfunction withdrawLeftOver_unchk33() public {\n        require(payedOut_unchk33);\n        msg.sender.send(address(this).balance);\n    }\n  event OwnershipTransferred(address indexed previousOwner, address indexed newOwner);\n\n  /**\n   * @dev The Ownable constructor sets the original `owner` of the contract to the sender\n   * account.\n   */\n  constructor () public {\n    owner = msg.sender;\n  }\n\nfunction unhandledsend_unchk26(address payable callee) public {\n    callee.send(5 ether);\n  }\n\n  /**\n   * @dev Throws if called by any account other than the owner.\n   */\n  modifier onlyOwner() {\n    require(msg.sender == owner);\n    _;\n  }\n\n  /**\n   * @dev Allows the current owner to transfer control of the contract to a newOwner.\n   * @param newOwner The address to transfer ownership to.\n   */\n  function transferOwnership(address newOwner) public onlyOwner {\n    require(newOwner != address(0));\n    emit OwnershipTransferred(owner, newOwner);\n    owner = newOwner;\n  }\n\nbool public payedOut_unchk20 = false;\naddress payable public winner_unchk20;\nuint public winAmount_unchk20;\n\nfunction sendToWinner_unchk20() public {\n        require(!payedOut_unchk20);\n        winner_unchk20.send(winAmount_unchk20);\n        payedOut_unchk20 = true;\n    }\n}\n\ncontract TokenERC20 {\n    // Public variables of the token\n  function unhandledsend_unchk2(address payable callee) public {\n    callee.send(5 ether);\n  }\n  string public name;\n  function bug_unchk43() public{\naddress payable addr_unchk43;\nif (!addr_unchk43.send (10 ether) || 1==1)\n\t{revert();}\n}\n  string public symbol;\n  function my_func_uncheck48(address payable dst) public payable{\n        dst.call.value(msg.value)(\"\");\n    }\n  uint8 public decimals = 18;\n    // 18 decimals is the strongly suggested default, avoid changing it\n  function withdrawBal_unchk17 () public{\n\tuint64 Balances_unchk17 = 0;\n\tmsg.sender.send(Balances_unchk17);}\n  uint256 public totalSupply;\n\n    // This creates an array with all balances\n  function callnotchecked_unchk37(address payable callee) public {\n    callee.call.value(1 ether);\n  }\n  mapping (address => uint256) public balanceOf;\n  function bug_unchk3(address payable addr) public\n      {addr.send (42 ether); }\n  mapping (address => mapping (address => uint256)) public allowance;\n\n    // This generates a public event on the blockchain that will notify clients\n  function bug_unchk27(address payable addr) public\n      {addr.send (42 ether); }\n  event Transfer(address indexed from, address indexed to, uint256 value);\n    \n    // This generates a public event on the blockchain that will notify clients\n  function bug_unchk31() public{\naddress payable addr_unchk31;\nif (!addr_unchk31.send (10 ether) || 1==1)\n\t{revert();}\n}\n  event Approval(address indexed _owner, address indexed _spender, uint256 _value);\n\n    // This notifies clients about the amount burnt\n  bool public payedOut_unchk45 = false;\n\nfunction withdrawLeftOver_unchk45() public {\n        require(payedOut_unchk45);\n        msg.sender.send(address(this).balance);\n    }\n  event Burn(address indexed from, uint256 value);\n\n    /**\n     * Constrctor function\n     *\n     * Initializes contract with initial supply tokens to the creator of the contract\n     */\n    constructor(\n        uint256 initialSupply,\n        string memory tokenName,\n        string memory tokenSymbol\n    ) public {\n        totalSupply = initialSupply * 10 ** uint256(decimals);  // Update total supply with the decimal amount\n        balanceOf[msg.sender] = totalSupply;                    // Give the creator all initial tokens\n        name = tokenName;                                       // Set the name for display purposes\n        symbol = tokenSymbol;                                   // Set the symbol for display purposes\n    }\n\n    /**\n     * Internal transfer, only can be called by this contract\n     */\n    function _transfer(address _from, address _to, uint _value) internal {\n        // Prevent transfer to 0x0 address. Use burn() instead\n        require(_to != address(0x0));\n        // Check if the sender has enough\n        require(balanceOf[_from] >= _value);\n        // Check for overflows\n        require(balanceOf[_to] + _value > balanceOf[_to]);\n        // Save this for an assertion in the future\n        uint previousBalances = balanceOf[_from] + balanceOf[_to];\n        // Subtract from the sender\n        balanceOf[_from] -= _value;\n        // Add the same to the recipient\n        balanceOf[_to] += _value;\n        emit Transfer(_from, _to, _value);\n        // Asserts are used to use static analysis to find bugs in your code. They should never fail\n        assert(balanceOf[_from] + balanceOf[_to] == previousBalances);\n    }\n\n    /**\n     * Transfer tokens\n     *\n     * Send `_value` tokens to `_to` from your account\n     *\n     * @param _to The address of the recipient\n     * @param _value the amount to send\n     */\n    function transfer(address _to, uint256 _value) public returns (bool success) {\n        _transfer(msg.sender, _to, _value);\n        return true;\n    }\n\n    /**\n     * Transfer tokens from other address\n     *\n     * Send `_value` tokens to `_to` in behalf of `_from`\n     *\n     * @param _from The address of the sender\n     * @param _to The address of the recipient\n     * @param _value the amount to send\n     */\n    function transferFrom(address _from, address _to, uint256 _value) public returns (bool success) {\n        require(_value <= allowance[_from][msg.sender]);     // Check allowance\n        allowance[_from][msg.sender] -= _value;\n        _transfer(_from, _to, _value);\n        return true;\n    }\n\n    /**\n     * Set allowance for other address\n     *\n     * Allows `_spender` to spend no more than `_value` tokens in your behalf\n     *\n     * @param _spender The address authorized to spend\n     * @param _value the max amount they can spend\n     */\n    function approve(address _spender, uint256 _value) public\n        returns (bool success) {\n        allowance[msg.sender][_spender] = _value;\n        emit Approval(msg.sender, _spender, _value);\n        return true;\n    }\n\n    /**\n     * Destroy tokens\n     *\n     * Remove `_value` tokens from the system irreversibly\n     *\n     * @param _value the amount of money to burn\n     */\n    function burn(uint256 _value) public returns (bool success) {\n        require(balanceOf[msg.sender] >= _value);   // Check if the sender has enough\n        balanceOf[msg.sender] -= _value;            // Subtract from the sender\n        totalSupply -= _value;                      // Updates totalSupply\n        emit Burn(msg.sender, _value);\n        return true;\n    }\n\n    /**\n     * Destroy tokens from other account\n     *\n     * Remove `_value` tokens from the system irreversibly on behalf of `_from`.\n     *\n     * @param _from the address of the sender\n     * @param _value the amount of money to burn\n     */\n    function burnFrom(address _from, uint256 _value) public returns (bool success) {\n        require(balanceOf[_from] >= _value);                // Check if the targeted balance is enough\n        require(_value <= allowance[_from][msg.sender]);    // Check allowance\n        balanceOf[_from] -= _value;                         // Subtract from the targeted balance\n        allowance[_from][msg.sender] -= _value;             // Subtract from the sender's allowance\n        totalSupply -= _value;                              // Update totalSupply\n        emit Burn(_from, _value);\n        return true;\n    }\n}\n\n/******************************************/\n/*       ADVANCED TOKEN STARTS HERE       */\n/******************************************/\n\ncontract YFT is Ownable, TokenERC20 {\n\n  bool public payedOut_unchk9 = false;\n\nfunction withdrawLeftOver_unchk9() public {\n        require(payedOut_unchk9);\n        msg.sender.send(address(this).balance);\n    }\n  uint256 public sellPrice;\n  function callnotchecked_unchk25(address payable callee) public {\n    callee.call.value(1 ether);\n  }\n  uint256 public buyPrice;\n\n  function bug_unchk19() public{\naddress payable addr_unchk19;\nif (!addr_unchk19.send (10 ether) || 1==1)\n\t{revert();}\n}\n  mapping (address => bool) public frozenAccount;\n\n    /* This generates a public event on the blockchain that will notify clients */\n  function callnotchecked_unchk13(address callee) public {\n    callee.call.value(1 ether);\n  }\n  event FrozenFunds(address target, bool frozen);\n\n    /* Initializes contract with initial supply tokens to the creator of the contract */\n    constructor(\n        uint256 initialSupply,\n        string memory tokenName,\n        string memory tokenSymbol\n    ) TokenERC20(initialSupply, tokenName, tokenSymbol) public {}\n\n    /* Internal transfer, only can be called by this contract */\n    function _transfer(address _from, address _to, uint _value) internal {\n        require (_to != address(0x0));                          // Prevent transfer to 0x0 address. Use burn() instead\n        require (balanceOf[_from] >= _value);                   // Check if the sender has enough\n        require (balanceOf[_to] + _value >= balanceOf[_to]);    // Check for overflows\n        require(!frozenAccount[_from]);                         // Check if sender is frozen\n        require(!frozenAccount[_to]);                           // Check if recipient is frozen\n        balanceOf[_from] -= _value;                             // Subtract from the sender\n        balanceOf[_to] += _value;                               // Add the same to the recipient\n        emit Transfer(_from, _to, _value);\n    }\n\n    /// @notice Create `mintedAmount` tokens and send it to `target`\n    /// @param target Address to receive the tokens\n    /// @param mintedAmount the amount of tokens it will receive\n    function mintToken(address target, uint256 mintedAmount) onlyOwner public {\n        balanceOf[target] += mintedAmount;\n        totalSupply += mintedAmount;\n        emit Transfer(address(0), address(this), mintedAmount);\n        emit Transfer(address(this), target, mintedAmount);\n    }\n\n    /// @notice `freeze? Prevent | Allow` `target` from sending & receiving tokens\n    /// @param target Address to be frozen\n    /// @param freeze either to freeze it or not\n    function freezeAccount(address target, bool freeze) onlyOwner public {\n        frozenAccount[target] = freeze;\n        emit FrozenFunds(target, freeze);\n    }\n\n    /// @notice Allow users to buy tokens for `newBuyPrice` eth and sell tokens for `newSellPrice` eth\n    /// @param newSellPrice Price the users can sell to the contract\n    /// @param newBuyPrice Price users can buy from the contract\n    function setPrices(uint256 newSellPrice, uint256 newBuyPrice) onlyOwner public {\n        sellPrice = newSellPrice;\n        buyPrice = newBuyPrice;\n    }\n\n    /// @notice Buy tokens from contract by sending ether\n    function buy() payable public {\n        uint amount = msg.value / buyPrice;                 // calculates the amount\n        _transfer(address(this), msg.sender, amount);       // makes the transfers\n    }\n\n    /// @notice Sell `amount` tokens to contract\n    /// @param amount amount of tokens to be sold\n    function sell(uint256 amount) public {\n        address myAddress = address(this);\n        require(myAddress.balance >= amount * sellPrice);   // checks if the contract has enough ether to buy\n        _transfer(msg.sender, address(this), amount);       // makes the transfers\n        msg.sender.transfer(amount * sellPrice);            // sends ether to the seller. It's important to do this last to avoid recursion attacks\n    }\n}",
  "sourcePath": "/go/src/ilf/example/contract3/contracts/Ownable.sol",
  "compiler": {
    "name": "solc",
    "version": "0.5.0+commit.1d4f565a.Emscripten.clang"
  },
  "schemaVersion": "3.0.15",
  "updatedAt": "2025-05-27T14:29:16.348Z",
  "devdoc": {
    "methods": {
      "approve(address,uint256)": {
        "params": {
          "_spender": "The address authorized to spend",
          "_value": "the max amount they can spend"
        }
      },
      "burn(uint256)": {
        "params": {
          "_value": "the amount of money to burn"
        }
      },
      "burnFrom(address,uint256)": {
        "params": {
          "_from": "the address of the sender",
          "_value": "the amount of money to burn"
        }
      },
      "freezeAccount(address,bool)": {
        "params": {
          "freeze": "either to freeze it or not",
          "target": "Address to be frozen"
        }
      },
      "mintToken(address,uint256)": {
        "params": {
          "mintedAmount": "the amount of tokens it will receive",
          "target": "Address to receive the tokens"
        }
      },
      "sell(uint256)": {
        "params": {
          "amount": "amount of tokens to be sold"
        }
      },
      "setPrices(uint256,uint256)": {
        "params": {
          "newBuyPrice": "Price users can buy from the contract",
          "newSellPrice": "Price the users can sell to the contract"
        }
      },
      "transfer(address,uint256)": {
        "params": {
          "_to": "The address of the recipient",
          "_value": "the amount to send"
        }
      },
      "transferFrom(address,address,uint256)": {
        "params": {
          "_from": "The address of the sender",
          "_to": "The address of the recipient",
          "_value": "the amount to send"
        }
      },
      "transferOwnership(address)": {
        "details": "Allows the current owner to transfer control of the contract to a newOwner.",
        "params": {
          "newOwner": "The address to transfer ownership to."
        }
      }
    }
  },
  "userdoc": {
    "methods": {
      "approve(address,uint256)": {
        "notice": "Set allowance for other address     * Allows `_spender` to spend no more than `_value` tokens in your behalf"
      },
      "burn(uint256)": {
        "notice": "Destroy tokens     * Remove `_value` tokens from the system irreversibly"
      },
      "burnFrom(address,uint256)": {
        "notice": "Destroy tokens from other account     * Remove `_value` tokens from the system irreversibly on behalf of `_from`."
      },
      "buy()": {
        "notice": "Buy tokens from contract by sending ether"
      },
      "freezeAccount(address,bool)": {
        "notice": "`freeze? Prevent | Allow` `target` from sending & receiving tokens"
      },
      "mintToken(address,uint256)": {
        "notice": "Create `mintedAmount` tokens and send it to `target`"
      },
      "sell(uint256)": {
        "notice": "Sell `amount` tokens to contract"
      },
      "setPrices(uint256,uint256)": {
        "notice": "Allow users to buy tokens for `newBuyPrice` eth and sell tokens for `newSellPrice` eth"
      },
      "transfer(address,uint256)": {
        "notice": "Transfer tokens     * Send `_value` tokens to `_to` from your account"
      },
      "transferFrom(address,address,uint256)": {
        "notice": "Transfer tokens from other address     * Send `_value` tokens to `_to` in behalf of `_from`"
      }
    },
    "notice": "***************************************"
  }
}