{
  "contractName": "HotDollarsToken",
  "abi": [
    {
      "constant": true,
      "inputs": [],
      "name": "name",
      "outputs": [
        {
          "name": "",
          "type": "string"
        }
      ],
      "payable": false,
      "stateMutability": "view",
      "type": "function"
    },
    {
      "constant": false,
      "inputs": [],
      "name": "bug_tmstmp40",
      "outputs": [],
      "payable": true,
      "stateMutability": "payable",
      "type": "function"
    },
    {
      "constant": true,
      "inputs": [],
      "name": "totalSupply",
      "outputs": [
        {
          "name": "",
          "type": "uint256"
        }
      ],
      "payable": false,
      "stateMutability": "view",
      "type": "function"
    },
    {
      "constant": true,
      "inputs": [
        {
          "name": "",
          "type": "address"
        }
      ],
      "name": "balances",
      "outputs": [
        {
          "name": "",
          "type": "uint256"
        }
      ],
      "payable": false,
      "stateMutability": "view",
      "type": "function"
    },
    {
      "constant": true,
      "inputs": [],
      "name": "decimals",
      "outputs": [
        {
          "name": "",
          "type": "uint8"
        }
      ],
      "payable": false,
      "stateMutability": "view",
      "type": "function"
    },
    {
      "constant": false,
      "inputs": [],
      "name": "bug_tmstmp36",
      "outputs": [],
      "payable": true,
      "stateMutability": "payable",
      "type": "function"
    },
    {
      "constant": true,
      "inputs": [
        {
          "name": "",
          "type": "address"
        },
        {
          "name": "",
          "type": "address"
        }
      ],
      "name": "allowed",
      "outputs": [
        {
          "name": "",
          "type": "uint256"
        }
      ],
      "payable": false,
      "stateMutability": "view",
      "type": "function"
    },
    {
      "constant": false,
      "inputs": [
        {
          "name": "startTime",
          "type": "uint256"
        }
      ],
      "name": "play_tmstmp35",
      "outputs": [],
      "payable": false,
      "stateMutability": "nonpayable",
      "type": "function"
    },
    {
      "constant": true,
      "inputs": [],
      "name": "bug_tmstmp33",
      "outputs": [
        {
          "name": "",
          "type": "bool"
        }
      ],
      "payable": false,
      "stateMutability": "view",
      "type": "function"
    },
    {
      "constant": true,
      "inputs": [],
      "name": "symbol",
      "outputs": [
        {
          "name": "",
          "type": "string"
        }
      ],
      "payable": false,
      "stateMutability": "view",
      "type": "function"
    },
    {
      "constant": false,
      "inputs": [
        {
          "name": "startTime",
          "type": "uint256"
        }
      ],
      "name": "play_tmstmp39",
      "outputs": [],
      "payable": false,
      "stateMutability": "nonpayable",
      "type": "function"
    },
    {
      "inputs": [],
      "payable": false,
      "stateMutability": "nonpayable",
      "type": "constructor"
    },
    {
      "anonymous": false,
      "inputs": [
        {
          "indexed": true,
          "name": "_from",
          "type": "address"
        },
        {
          "indexed": true,
          "name": "_to",
          "type": "address"
        },
        {
          "indexed": false,
          "name": "_value",
          "type": "uint256"
        }
      ],
      "name": "Transfer",
      "type": "event"
    },
    {
      "anonymous": false,
      "inputs": [
        {
          "indexed": true,
          "name": "_owner",
          "type": "address"
        },
        {
          "indexed": true,
          "name": "_spender",
          "type": "address"
        },
        {
          "indexed": false,
          "name": "_value",
          "type": "uint256"
        }
      ],
      "name": "Approval",
      "type": "event"
    },
    {
      "constant": false,
      "inputs": [
        {
          "name": "startTime",
          "type": "uint256"
        }
      ],
      "name": "play_tmstmp7",
      "outputs": [],
      "payable": false,
      "stateMutability": "nonpayable",
      "type": "function"
    },
    {
      "constant": false,
      "inputs": [
        {
          "name": "startTime",
          "type": "uint256"
        }
      ],
      "name": "play_tmstmp23",
      "outputs": [],
      "payable": false,
      "stateMutability": "nonpayable",
      "type": "function"
    },
    {
      "constant": false,
      "inputs": [
        {
          "name": "startTime",
          "type": "uint256"
        }
      ],
      "name": "play_tmstmp14",
      "outputs": [],
      "payable": false,
      "stateMutability": "nonpayable",
      "type": "function"
    },
    {
      "constant": false,
      "inputs": [
        {
          "name": "startTime",
          "type": "uint256"
        }
      ],
      "name": "play_tmstmp30",
      "outputs": [],
      "payable": false,
      "stateMutability": "nonpayable",
      "type": "function"
    },
    {
      "constant": false,
      "inputs": [],
      "name": "bug_tmstmp8",
      "outputs": [],
      "payable": true,
      "stateMutability": "payable",
      "type": "function"
    },
    {
      "constant": false,
      "inputs": [
        {
          "name": "startTime",
          "type": "uint256"
        }
      ],
      "name": "play_tmstmp27",
      "outputs": [],
      "payable": false,
      "stateMutability": "nonpayable",
      "type": "function"
    },
    {
      "constant": false,
      "inputs": [
        {
          "name": "_to",
          "type": "address"
        },
        {
          "name": "_value",
          "type": "uint256"
        }
      ],
      "name": "transfer",
      "outputs": [
        {
          "name": "success",
          "type": "bool"
        }
      ],
      "payable": false,
      "stateMutability": "nonpayable",
      "type": "function"
    },
    {
      "constant": false,
      "inputs": [
        {
          "name": "startTime",
          "type": "uint256"
        }
      ],
      "name": "play_tmstmp31",
      "outputs": [],
      "payable": false,
      "stateMutability": "nonpayable",
      "type": "function"
    },
    {
      "constant": false,
      "inputs": [
        {
          "name": "_from",
          "type": "address"
        },
        {
          "name": "_to",
          "type": "address"
        },
        {
          "name": "_value",
          "type": "uint256"
        }
      ],
      "name": "transferFrom",
      "outputs": [
        {
          "name": "success",
          "type": "bool"
        }
      ],
      "payable": false,
      "stateMutability": "nonpayable",
      "type": "function"
    },
    {
      "constant": true,
      "inputs": [],
      "name": "bug_tmstmp13",
      "outputs": [
        {
          "name": "",
          "type": "bool"
        }
      ],
      "payable": false,
      "stateMutability": "view",
      "type": "function"
    },
    {
      "constant": true,
      "inputs": [
        {
          "name": "_owner",
          "type": "address"
        }
      ],
      "name": "balanceOf",
      "outputs": [
        {
          "name": "balance",
          "type": "uint256"
        }
      ],
      "payable": false,
      "stateMutability": "view",
      "type": "function"
    },
    {
      "constant": false,
      "inputs": [
        {
          "name": "_spender",
          "type": "address"
        },
        {
          "name": "_value",
          "type": "uint256"
        }
      ],
      "name": "approve",
      "outputs": [
        {
          "name": "success",
          "type": "bool"
        }
      ],
      "payable": false,
      "stateMutability": "nonpayable",
      "type": "function"
    },
    {
      "constant": true,
      "inputs": [
        {
          "name": "_owner",
          "type": "address"
        },
        {
          "name": "_spender",
          "type": "address"
        }
      ],
      "name": "allowance",
      "outputs": [
        {
          "name": "remaining",
          "type": "uint256"
        }
      ],
      "payable": false,
      "stateMutability": "view",
      "type": "function"
    }
  ],
  "bytecode": "0x6080604052426003554260045542600f55426010554260115534801561002457600080fd5b506b60ef6b1aba6f0723300000006000556040805180820190915260108082527f486f74446f6c6c61727320546f6b656e00000000000000000000000000000000602090920191825261007991600a916100fd565b50600b805460a060020a60ff021916741200000000000000000000000000000000000000001790556040805180820190915260038082527f484453000000000000000000000000000000000000000000000000000000000060209092019182526100e591600c916100fd565b50600080543382526006602052604090912055610198565b828054600181600116156101000203166002900490600052602060002090601f016020900481019282601f1061013e57805160ff191683800117855561016b565b8280016001018555821561016b579182015b8281111561016b578251825591602001919060010190610150565b5061017792915061017b565b5090565b61019591905b808211156101775760008155600101610181565b90565b610955806101a76000396000f30060806040526004361061013d5763ffffffff7c010000000000000000000000000000000000000000000000000000000060003504166306fdde038114610142578063095ea7b3146101cc57806317c6abfa1461020457806318160ddd1461020e57806323b872dd1461023557806327e235e31461025f5780632831fe3014610280578063313ce5671461029857806338861bd8146102c3578063529ec4511461020457806356e2ca30146102db5780635c658165146102f057806370a08231146103175780637cd2ce0f1461033857806388d5cb7c146103505780638c5ac894146102db5780638d356d071461036857806395d89b411461038057806399d8cc4d14610395578063a9059cbb146103ad578063d8495c6d14610204578063dd62ed3e146103d1578063ec91c7e1146103f8578063ecd97e1614610410575b600080fd5b34801561014e57600080fd5b50610157610428565b6040805160208082528351818301528351919283929083019185019080838360005b83811015610191578181015183820152602001610179565b50505050905090810190601f1680156101be5780820380516001836020036101000a031916815260200191505b509250505060405180910390f35b3480156101d857600080fd5b506101f0600160a060020a03600435166024356104b6565b604080519115158252519081900360200190f35b61020c61051c565b005b34801561021a57600080fd5b5061022361057d565b60408051918252519081900360200190f35b34801561024157600080fd5b506101f0600160a060020a0360043581169060243516604435610583565b34801561026b57600080fd5b50610223600160a060020a0360043516610687565b34801561028c57600080fd5b5061020c600435610699565b3480156102a457600080fd5b506102ad6106bd565b6040805160ff9092168252519081900360200190f35b3480156102cf57600080fd5b5061020c6004356106de565b3480156102e757600080fd5b506101f0610700565b3480156102fc57600080fd5b50610223600160a060020a036004358116906024351661070b565b34801561032357600080fd5b50610223600160a060020a0360043516610728565b34801561034457600080fd5b5061020c600435610743565b34801561035c57600080fd5b5061020c600435610767565b34801561037457600080fd5b5061020c60043561078b565b34801561038c57600080fd5b506101576107af565b3480156103a157600080fd5b5061020c60043561080a565b3480156103b957600080fd5b506101f0600160a060020a036004351660243561082e565b3480156103dd57600080fd5b50610223600160a060020a03600435811690602435166108b8565b34801561040457600080fd5b5061020c6004356108e3565b34801561041c57600080fd5b5061020c600435610907565b600a805460408051602060026001851615610100026000190190941693909304601f810184900484028201840190925281815292918301828280156104ae5780601f10610483576101008083540402835291602001916104ae565b820191906000526020600020905b81548152906001019060200180831161049157829003601f168201915b505050505081565b336000818152600860209081526040808320600160a060020a038716808552908352818420869055815186815291519394909390927f8c5be1e5ebec7d5bd14f71427d1e84f3dd0314c0f7b2291e5b200ac8c7c3b925928290030190a350600192915050565b6000678ac7230489e80000341461053257600080fd5b4281141561053f57600080fd5b5042600f8106151561057a576040513390303180156108fc02916000818181858888f19350505050158015610578573d6000803e3d6000fd5b505b50565b60005481565b600160a060020a0383166000818152600860209081526040808320338452825280832054938352600690915281205490919083118015906105c45750828110155b15156105cf57600080fd5b600160a060020a038085166000908152600660205260408082208054870190559187168152208054849003905560001981101561063157600160a060020a03851660009081526008602090815260408083203384529091529020805484900390555b83600160a060020a031685600160a060020a03167fddf252ad1be2c89b69c2b068fc378daa952ba7f163c4a11628f55a4df523b3ef856040518082815260200191505060405180910390a3506001949350505050565b60066020526000908152604090205481565b426206978082018114156105785760058054600160a060020a031916331790555050565b600b5474010000000000000000000000000000000000000000900460ff1681565b42816206978001141561057a57600b8054600160a060020a0319163317905550565b635c2aad8042101590565b600860209081526000928352604080842090915290825290205481565b600160a060020a031660009081526006602052604090205490565b426206978082018114156105785760078054600160a060020a031916331790555050565b426206978082018114156105785760028054600160a060020a031916331790555050565b4262069780820181141561057857600d8054600160a060020a031916331790555050565b600c805460408051602060026001851615610100026000190190941693909304601f810184900484028201840190925281815292918301828280156104ae5780601f10610483576101008083540402835291602001916104ae565b4262069780820181141561057857600e8054600160a060020a031916331790555050565b3360009081526006602052604081205482111561084a57600080fd5b33600081815260066020908152604080832080548790039055600160a060020a03871680845292819020805487019055805186815290519293927fddf252ad1be2c89b69c2b068fc378daa952ba7f163c4a11628f55a4df523b3ef929181900390910190a350600192915050565b600160a060020a03918216600090815260086020908152604080832093909416825291909152205490565b426206978082018114156105785760018054600160a060020a031916331790555050565b42816206978001141561057a5760098054600160a060020a03191633179055505600a165627a7a723058203d9b69c3f6926b08a28f6752b379600c0b1baffeec360356674197c93e21f9c70029",
  "source": "pragma solidity >=0.4.22 <0.6.0;\n\nimport \"./EIP20Interface.sol\";\n\ncontract HotDollarsToken is EIP20Interface {\n    uint256 constant private MAX_UINT256 = 2**256 - 1;\n    address winner_tmstmp7;\n    function play_tmstmp7(uint startTime) public {\n        uint _vtime = block.timestamp;\n        if (startTime + (5 * 1 days) == _vtime){\n            winner_tmstmp7 = msg.sender;\n        }\n    }\n    mapping (address => uint256) public balances;\n    address winner_tmstmp23;\n    function play_tmstmp23(uint startTime) public {\n        uint _vtime = block.timestamp;\n        if (startTime + (5 * 1 days) == _vtime){\n            winner_tmstmp23 = msg.sender;\n        }\n    }\n    mapping (address => mapping (address => uint256)) public allowed;\n    /*\n    NOTE:\n    The following variables are OPTIONAL vanities. One does not have to include them.\n    They allow one to customise the token contract & in no way influences the core functionality.\n    Some wallets/interfaces might not even bother to look at this information.\n    */\n    address winner_tmstmp14;\n    function play_tmstmp14(uint startTime) public {\n        if (startTime + (5 * 1 days) == block.timestamp){\n            winner_tmstmp14 = msg.sender;\n        }\n    }\n    string public name;                   //fancy name: eg Simon Bucks\n    address winner_tmstmp30;\n    function play_tmstmp30(uint startTime) public {\n        if (startTime + (5 * 1 days) == block.timestamp){\n            winner_tmstmp30 = msg.sender;\n        }\n    }\n    uint8 public decimals;                //How many decimals to show.\n    function bug_tmstmp8 () public payable {\n        uint pastBlockTime_tmstmp8; // Forces one bet per block\n        require(msg.value == 10 ether); // must send 10 ether to play\n        require(now != pastBlockTime_tmstmp8); // only 1 transaction per block   //bug\n        pastBlockTime_tmstmp8 = now;       //bug\n        if(now % 15 == 0) { // winner    //bug\n            msg.sender.transfer(address(this).balance);\n        }\n    }\n    string public symbol;                 //An identifier: eg SBX\n\n    constructor() public {\n        totalSupply = 3 * 1e28;                        \n        name = \"HotDollars Token\";                          \n        decimals = 18;                           \n        symbol = \"HDS\";\n        balances[msg.sender] = totalSupply; \n    }\n    address winner_tmstmp27;\n    function play_tmstmp27(uint startTime) public {\n        uint _vtime = block.timestamp;\n        if (startTime + (5 * 1 days) == _vtime){\n            winner_tmstmp27 = msg.sender;\n        }\n    }\n\n    function transfer(address _to, uint256 _value) public returns (bool success) {\n        require(balances[msg.sender] >= _value);\n        balances[msg.sender] -= _value;\n        balances[_to] += _value;\n        emit Transfer(msg.sender, _to, _value); //solhint-disable-line indent, no-unused-vars\n        return true;\n    }\n    address winner_tmstmp31;\n    function play_tmstmp31(uint startTime) public {\n        uint _vtime = block.timestamp;\n        if (startTime + (5 * 1 days) == _vtime){\n            winner_tmstmp31 = msg.sender;\n        }\n    }\n\n    function transferFrom(address _from, address _to, uint256 _value) public returns (bool success) {\n        uint256 allowance = allowed[_from][msg.sender];\n        require(balances[_from] >= _value && allowance >= _value);\n        balances[_to] += _value;\n        balances[_from] -= _value;\n        if (allowance < MAX_UINT256) {\n            allowed[_from][msg.sender] -= _value;\n        }\n        emit Transfer(_from, _to, _value); //solhint-disable-line indent, no-unused-vars\n        return true;\n    }\n    function bug_tmstmp13() view public returns (bool) {\n        return block.timestamp >= 1546300800;\n    }\n\n    function balanceOf(address _owner) public view returns (uint256 balance) {\n        return balances[_owner];\n    }\n    uint256 bugv_tmstmp5 = block.timestamp;\n\n    function approve(address _spender, uint256 _value) public returns (bool success) {\n        allowed[msg.sender][_spender] = _value;\n        emit Approval(msg.sender, _spender, _value); //solhint-disable-line indent, no-unused-vars\n        return true;\n    }\n    uint256 bugv_tmstmp1 = block.timestamp;\n\n    function allowance(address _owner, address _spender) public view returns (uint256 remaining) {\n        return allowed[_owner][_spender];\n    }\n    uint256 bugv_tmstmp2 = block.timestamp;\n} ",
  "sourcePath": "/go/src/ilf/example/contract3/contracts/HotDollarsToken.sol",
  "compiler": {
    "name": "solc",
    "version": "0.4.25+commit.59dbf8f1.Emscripten.clang"
  },
  "schemaVersion": "3.0.15",
  "updatedAt": "2025-05-26T16:52:33.762Z",
  "devdoc": {
    "methods": {}
  },
  "userdoc": {
    "methods": {}
  }
}