{
  "contractName": "Crowdsale",
  "abi": [
    {
      "constant": true,
      "inputs": [
        {
          "name": "",
          "type": "address"
        }
      ],
      "name": "balances",
      "outputs": [
        {
          "name": "",
          "type": "uint256"
        }
      ],
      "payable": false,
      "stateMutability": "view",
      "type": "function"
    },
    {
      "constant": true,
      "inputs": [],
      "name": "rate",
      "outputs": [
        {
          "name": "",
          "type": "uint256"
        }
      ],
      "payable": false,
      "stateMutability": "view",
      "type": "function"
    },
    {
      "constant": true,
      "inputs": [],
      "name": "owner",
      "outputs": [
        {
          "name": "",
          "type": "address"
        }
      ],
      "payable": false,
      "stateMutability": "view",
      "type": "function"
    },
    {
      "constant": true,
      "inputs": [],
      "name": "raisedAmount",
      "outputs": [
        {
          "name": "",
          "type": "uint256"
        }
      ],
      "payable": false,
      "stateMutability": "view",
      "type": "function"
    },
    {
      "inputs": [],
      "payable": false,
      "stateMutability": "nonpayable",
      "type": "constructor"
    },
    {
      "constant": false,
      "inputs": [],
      "name": "buyTokens",
      "outputs": [],
      "payable": true,
      "stateMutability": "payable",
      "type": "function"
    },
    {
      "constant": false,
      "inputs": [
        {
          "name": "amount",
          "type": "uint256"
        }
      ],
      "name": "withdrawFunds",
      "outputs": [],
      "payable": false,
      "stateMutability": "nonpayable",
      "type": "function"
    },
    {
      "constant": false,
      "inputs": [
        {
          "name": "newRate",
          "type": "uint256"
        }
      ],
      "name": "changeRate",
      "outputs": [],
      "payable": false,
      "stateMutability": "nonpayable",
      "type": "function"
    },
    {
      "constant": true,
      "inputs": [],
      "name": "getBalance",
      "outputs": [
        {
          "name": "",
          "type": "uint256"
        }
      ],
      "payable": false,
      "stateMutability": "view",
      "type": "function"
    }
  ],
  "bytecode": "0x6080604052606460015534801561001557600080fd5b5060008054600160a060020a03191633179055610408806100376000396000f30060806040526004361061008d5763ffffffff7c010000000000000000000000000000000000000000000000000000000060003504166312065fe08114610092578063155dd5ee146100b957806327e235e3146100d35780632c4e722e1461010157806374e7493b146101165780638da5cb5b1461012e578063c59ee1dc1461016c578063d0febe4c14610181575b600080fd5b34801561009e57600080fd5b506100a7610189565b60408051918252519081900360200190f35b3480156100c557600080fd5b506100d160043561019c565b005b3480156100df57600080fd5b506100a773ffffffffffffffffffffffffffffffffffffffff600435166102ae565b34801561010d57600080fd5b506100a76102c0565b34801561012257600080fd5b506100d16004356102c6565b34801561013a57600080fd5b5061014361033a565b6040805173ffffffffffffffffffffffffffffffffffffffff9092168252519081900360200190f35b34801561017857600080fd5b506100a7610356565b6100d161035c565b3360009081526003602052604090205490565b60005473ffffffffffffffffffffffffffffffffffffffff16331461020b576040805160e560020a62461bcd02815260206004820152601760248201527f4f6e6c79206f776e65722063616e207769746864726177000000000000000000604482015290519081900360640190fd5b3031811115610264576040805160e560020a62461bcd02815260206004820152601260248201527f496e73756666696369656e742066756e64730000000000000000000000000000604482015290519081900360640190fd5b6000805460405173ffffffffffffffffffffffffffffffffffffffff9091169183156108fc02918491818181858888f193505050501580156102aa573d6000803e3d6000fd5b5050565b60036020526000908152604090205481565b60015481565b60005473ffffffffffffffffffffffffffffffffffffffff163314610335576040805160e560020a62461bcd02815260206004820152601a60248201527f4f6e6c79206f776e65722063616e206368616e67652072617465000000000000604482015290519081900360640190fd5b600155565b60005473ffffffffffffffffffffffffffffffffffffffff1681565b60025481565b60003481106103b5576040805160e560020a62461bcd02815260206004820152601660248201527f53656e642045544820746f2062757920746f6b656e7300000000000000000000604482015290519081900360640190fd5b506001543360009081526003602052604090208054349283020190556002805490910190555600a165627a7a723058204437c605cb6d5da1c49a91a24df2f38a082c387187c46178fac48d12dcca5b1a0029",
  "source": "// SPDX-License-Identifier: MIT\npragma solidity ^0.4.25;\n\ncontract Crowdsale {\n    address public owner;\n    uint256 public rate = 100;\n    uint256 public raisedAmount;\n\n    mapping(address => uint256) public balances;\n\n    constructor() public {\n        owner = msg.sender;\n    }\n\n    function buyTokens() public payable {\n        require(msg.value > 0, \"Send ETH to buy tokens\");\n        uint256 tokens = msg.value * rate;\n        balances[msg.sender] += tokens;\n        raisedAmount += msg.value;\n    }\n\n    function withdrawFunds(uint256 amount) public {\n        require(msg.sender == owner, \"Only owner can withdraw\");\n        require(amount <= address(this).balance, \"Insufficient funds\");\n        owner.transfer(amount);\n    }\n\n    function changeRate(uint256 newRate) public {\n        require(msg.sender == owner, \"Only owner can change rate\");\n        rate = newRate;\n    }\n\n    function getBalance() public view returns (uint256) {\n        return balances[msg.sender];\n    }\n} ",
  "sourcePath": "/go/src/ilf/truffle_project/contracts/Crowdsale.sol",
  "compiler": {
    "name": "solc",
    "version": "0.4.25+commit.59dbf8f1.Emscripten.clang"
  },
  "schemaVersion": "3.0.15",
  "updatedAt": "2025-05-25T17:24:11.989Z",
  "devdoc": {
    "methods": {}
  },
  "userdoc": {
    "methods": {}
  }
}