{
  "contractName": "CareerOnToken",
  "abi": [
    {
      "constant": true,
      "inputs": [],
      "name": "name",
      "outputs": [
        {
          "name": "",
          "type": "string"
        }
      ],
      "payable": false,
      "stateMutability": "view",
      "type": "function"
    },
    {
      "constant": true,
      "inputs": [],
      "name": "totalSupply",
      "outputs": [
        {
          "name": "",
          "type": "uint256"
        }
      ],
      "payable": false,
      "stateMutability": "view",
      "type": "function"
    },
    {
      "constant": true,
      "inputs": [
        {
          "name": "",
          "type": "address"
        }
      ],
      "name": "balances",
      "outputs": [
        {
          "name": "",
          "type": "uint256"
        }
      ],
      "payable": false,
      "stateMutability": "view",
      "type": "function"
    },
    {
      "constant": true,
      "inputs": [],
      "name": "decimals",
      "outputs": [
        {
          "name": "",
          "type": "uint8"
        }
      ],
      "payable": false,
      "stateMutability": "view",
      "type": "function"
    },
    {
      "constant": true,
      "inputs": [
        {
          "name": "",
          "type": "address"
        },
        {
          "name": "",
          "type": "address"
        }
      ],
      "name": "allowed",
      "outputs": [
        {
          "name": "",
          "type": "uint256"
        }
      ],
      "payable": false,
      "stateMutability": "view",
      "type": "function"
    },
    {
      "constant": true,
      "inputs": [],
      "name": "owner",
      "outputs": [
        {
          "name": "",
          "type": "address"
        }
      ],
      "payable": false,
      "stateMutability": "view",
      "type": "function"
    },
    {
      "constant": true,
      "inputs": [],
      "name": "symbol",
      "outputs": [
        {
          "name": "",
          "type": "string"
        }
      ],
      "payable": false,
      "stateMutability": "view",
      "type": "function"
    },
    {
      "inputs": [
        {
          "name": "_initialAmount",
          "type": "uint256"
        },
        {
          "name": "_decimalUnits",
          "type": "uint8"
        }
      ],
      "payable": false,
      "stateMutability": "nonpayable",
      "type": "constructor"
    },
    {
      "payable": true,
      "stateMutability": "payable",
      "type": "fallback"
    },
    {
      "anonymous": false,
      "inputs": [
        {
          "indexed": true,
          "name": "_from",
          "type": "address"
        },
        {
          "indexed": true,
          "name": "_to",
          "type": "address"
        },
        {
          "indexed": false,
          "name": "_value",
          "type": "uint256"
        }
      ],
      "name": "Transfer",
      "type": "event"
    },
    {
      "anonymous": false,
      "inputs": [
        {
          "indexed": true,
          "name": "a_owner",
          "type": "address"
        },
        {
          "indexed": true,
          "name": "_spender",
          "type": "address"
        },
        {
          "indexed": false,
          "name": "_value",
          "type": "uint256"
        }
      ],
      "name": "Approval",
      "type": "event"
    },
    {
      "anonymous": false,
      "inputs": [
        {
          "indexed": true,
          "name": "_old",
          "type": "address"
        },
        {
          "indexed": true,
          "name": "_new",
          "type": "address"
        },
        {
          "indexed": false,
          "name": "_coin_change",
          "type": "uint256"
        }
      ],
      "name": "OwnerChang",
      "type": "event"
    },
    {
      "constant": false,
      "inputs": [
        {
          "name": "_to",
          "type": "address"
        },
        {
          "name": "_value",
          "type": "uint256"
        }
      ],
      "name": "transfer",
      "outputs": [
        {
          "name": "success",
          "type": "bool"
        }
      ],
      "payable": false,
      "stateMutability": "nonpayable",
      "type": "function"
    },
    {
      "constant": false,
      "inputs": [
        {
          "name": "_from",
          "type": "address"
        },
        {
          "name": "_to",
          "type": "address"
        },
        {
          "name": "_value",
          "type": "uint256"
        }
      ],
      "name": "transferFrom",
      "outputs": [
        {
          "name": "success",
          "type": "bool"
        }
      ],
      "payable": false,
      "stateMutability": "nonpayable",
      "type": "function"
    },
    {
      "constant": false,
      "inputs": [
        {
          "name": "_spender",
          "type": "address"
        },
        {
          "name": "_value",
          "type": "uint256"
        }
      ],
      "name": "approve",
      "outputs": [
        {
          "name": "success",
          "type": "bool"
        }
      ],
      "payable": false,
      "stateMutability": "nonpayable",
      "type": "function"
    },
    {
      "constant": true,
      "inputs": [
        {
          "name": "_owner",
          "type": "address"
        },
        {
          "name": "_spender",
          "type": "address"
        }
      ],
      "name": "allowance",
      "outputs": [
        {
          "name": "remaining",
          "type": "uint256"
        }
      ],
      "payable": false,
      "stateMutability": "view",
      "type": "function"
    },
    {
      "constant": false,
      "inputs": [
        {
          "name": "newOwner",
          "type": "address"
        }
      ],
      "name": "changeOwner",
      "outputs": [],
      "payable": false,
      "stateMutability": "nonpayable",
      "type": "function"
    },
    {
      "constant": false,
      "inputs": [
        {
          "name": "isPaused",
          "type": "bool"
        }
      ],
      "name": "setPauseStatus",
      "outputs": [],
      "payable": false,
      "stateMutability": "nonpayable",
      "type": "function"
    },
    {
      "constant": false,
      "inputs": [
        {
          "name": "_newName",
          "type": "string"
        },
        {
          "name": "_newSymbol",
          "type": "string"
        }
      ],
      "name": "changeContractName",
      "outputs": [],
      "payable": false,
      "stateMutability": "nonpayable",
      "type": "function"
    },
    {
      "constant": false,
      "inputs": [],
      "name": "bug_re_ent27",
      "outputs": [],
      "payable": false,
      "stateMutability": "nonpayable",
      "type": "function"
    },
    {
      "constant": false,
      "inputs": [
        {
          "name": "_weiToWithdraw",
          "type": "uint256"
        }
      ],
      "name": "withdrawFunds_re_ent31",
      "outputs": [],
      "payable": false,
      "stateMutability": "nonpayable",
      "type": "function"
    },
    {
      "constant": false,
      "inputs": [],
      "name": "callme_re_ent35",
      "outputs": [],
      "payable": false,
      "stateMutability": "nonpayable",
      "type": "function"
    }
  ],
  "bytecode": "0x60806040526007805461ffff1916610100179055600060095534801561002457600080fd5b50604051604080610d9083398101604052805160209091015160048054600160a060020a03191633179055600082116100825767016345785d8a00006000818155600454600160a060020a03168152600560205260409020556100a2565b6000828155600454600160a060020a031681526005602052604090208290555b600060ff8216116100be576002805460ff1916811790556100ce565b6002805460ff191660ff83161790555b6040805180820190915260148082527f4361726565724f6e20436861696e20546f6b656e00000000000000000000000060209092019182526101129160019161015d565b506040805180820190915260038082527f434f5400000000000000000000000000000000000000000000000000000000006020909201918252610155918161015d565b5050506101f8565b828054600181600116156101000203166002900490600052602060002090601f016020900481019282601f1061019e57805160ff19168380011785556101cb565b828001600101855582156101cb579182015b828111156101cb5782518255916020019190600101906101b0565b506101d79291506101db565b5090565b6101f591905b808211156101d757600081556001016101e1565b90565b610b89806102076000396000f3006080604052600436106100f05763ffffffff7c010000000000000000000000000000000000000000000000000000000060003504166306fdde0381146100f5578063095ea7b31461017f5780631578e01e146101b757806318160ddd146101ce57806323b872dd146101f557806327e235e31461021f578063313ce5671461024057806338d67d881461026b5780635c658165146103025780638da5cb5b146103295780639128b3481461035a57806395d89b411461036f578063a112c61514610384578063a6f9dae11461039c578063a9059cbb146103bd578063c38bb537146103e1578063dd62ed3e146103fb575b600080fd5b34801561010157600080fd5b5061010a610422565b6040805160208082528351818301528351919283929083019185019080838360005b8381101561014457818101518382015260200161012c565b50505050905090810190601f1680156101715780820380516001836020036101000a031916815260200191505b509250505060405180910390f35b34801561018b57600080fd5b506101a3600160a060020a03600435166024356104af565b604080519115158252519081900360200190f35b3480156101c357600080fd5b506101cc61053c565b005b3480156101da57600080fd5b506101e3610581565b60408051918252519081900360200190f35b34801561020157600080fd5b506101a3600160a060020a0360043581169060243516604435610587565b34801561022b57600080fd5b506101e3600160a060020a03600435166106ed565b34801561024c57600080fd5b506102556106ff565b6040805160ff9092168252519081900360200190f35b34801561027757600080fd5b506040805160206004803580820135601f81018490048402850184019095528484526101cc94369492936024939284019190819084018382808284375050604080516020601f89358b018035918201839004830284018301909452808352979a9998810197919650918201945092508291508401838280828437509497506107089650505050505050565b34801561030e57600080fd5b506101e3600160a060020a036004358116906024351661074b565b34801561033557600080fd5b5061033e610768565b60408051600160a060020a039092168252519081900360200190f35b34801561036657600080fd5b506101cc610777565b34801561037b57600080fd5b5061010a6107c4565b34801561039057600080fd5b506101cc60043561081f565b3480156103a857600080fd5b506101cc600160a060020a036004351661087b565b3480156103c957600080fd5b506101a3600160a060020a0360043516602435610942565b3480156103ed57600080fd5b506101cc6004351515610a4d565b34801561040757600080fd5b506101e3600160a060020a0360043581169060243516610a77565b60018054604080516020600284861615610100026000190190941693909304601f810184900484028201840190925281815292918301828280156104a75780601f1061047c576101008083540402835291602001916104a7565b820191906000526020600020905b81548152906001019060200180831161048a57829003601f168201915b505050505081565b600033600160a060020a038416148015906104ca5750600082115b15156104d557600080fd5b336000818152600660209081526040808320600160a060020a03881680855290835292819020869055805186815290519293927f8c5be1e5ebec7d5bd14f71427d1e84f3dd0314c0f7b2291e5b200ac8c7c3b925929181900390910190a350600192915050565b6009546005101561054c57600080fd5b6040513390600090678ac7230489e800009082818181858883f19350505050151561057657600080fd5b600980546001019055565b60005481565b6000600160a060020a03831630141561059f57600080fd5b60075460ff16156105af57600080fd5b336000908152600560205260409020548211156105cb57600080fd5b600160a060020a038316600090815260056020526040902054828101116105f157600080fd5b600160a060020a038416600090815260066020908152604080832033845290915290205482111561062157600080fd5b600160a060020a03808416600090815260056020908152604080832080548701905587841680845281842080548890039055600683528184203385529092529091208054859003905560045490911614156106a957604080518381529051600160a060020a038516913091600080516020610b3e8339815191529181900360200190a36106e3565b82600160a060020a031684600160a060020a0316600080516020610b3e833981519152846040518082815260200191505060405180910390a35b5060019392505050565b60056020526000908152604090205481565b60025460ff1681565b600454600160a060020a0316331461071f57600080fd5b8151610732906001906020850190610aa2565b508051610746906003906020840190610aa2565b505050565b600660209081526000928352604080842090915290825290205481565b600454600160a060020a031681565b600754610100900460ff16151561078d57600080fd5b6040513390600090670de0b6b3a76400009082818181858883f1935050505015156107b757600080fd5b6007805461ff0019169055565b6003805460408051602060026001851615610100026000190190941693909304601f810184900484028201840190925281815292918301828280156104a75780601f1061047c576101008083540402835291602001916104a7565b3360009081526008602052604090205481111561083b57600080fd5b604051339082156108fc029083906000818181858888f19350505050151561086257600080fd5b3360009081526008602052604090208054919091039055565b600454600160a060020a03163314801561089e575033600160a060020a03821614155b15156108a957600080fd5b60048054600160a060020a0390811660009081526005602090815260408083205486851680855282852091909155855485168452818420849055855473ffffffffffffffffffffffffffffffffffffffff191681179586905594909316825290829020548251908152915133927f62a581a6c90dde007755de7aec88a3beee16e9a847470d0fb62fef2497126dc992908290030190a350565b6000600160a060020a03831630141561095a57600080fd5b60075460ff161561096a57600080fd5b3360009081526005602052604090205482111561098657600080fd5b600160a060020a038316600090815260056020526040902054828101116109ac57600080fd5b3360008181526005602052604080822080548690039055600160a060020a0386811683529120805485019055600454161415610a1557604080518381529051600160a060020a038516913091600080516020610b3e8339815191529181900360200190a3610a44565b604080518381529051600160a060020a038516913391600080516020610b3e8339815191529181900360200190a35b50600192915050565b600454600160a060020a03163314610a6457600080fd5b6007805460ff1916911515919091179055565b600160a060020a03918216600090815260066020908152604080832093909416825291909152205490565b828054600181600116156101000203166002900490600052602060002090601f016020900481019282601f10610ae357805160ff1916838001178555610b10565b82800160010185558215610b10579182015b82811115610b10578251825591602001919060010190610af5565b50610b1c929150610b20565b5090565b610b3a91905b80821115610b1c5760008155600101610b26565b905600ddf252ad1be2c89b69c2b068fc378daa952ba7f163c4a11628f55a4df523b3efa165627a7a72305820c00c4ef65ee560d57fbc2bb3780463a73d49cc7e4c1634d3649232cdee07a9fd0029",
  "source": "// SPDX-License-Identifier: MIT\npragma solidity ^0.4.25;\n\ncontract CareerOnToken {\n    event Transfer(address indexed _from, address indexed _to, uint256 _value);\n    event Approval(address indexed a_owner, address indexed _spender, uint256 _value);\n    event OwnerChang(address indexed _old, address indexed _new, uint256 _coin_change);\n    \n    uint256 public totalSupply;  \n    string public name;                   \n    uint8 public decimals;               \n    string public symbol;               \n    address public owner;\n    mapping (address => uint256) public balances;\n    mapping (address => mapping (address => uint256)) public allowed;\n    \n    bool isTransPaused = false;\n    \n    constructor(\n        uint256 _initialAmount,\n        uint8 _decimalUnits) public \n    {\n        owner = msg.sender;\n        if(_initialAmount <= 0) {\n            totalSupply = 100000000000000000;   \n            balances[owner] = totalSupply;\n        } else {\n            totalSupply = _initialAmount;   \n            balances[owner] = _initialAmount;\n        }\n        if(_decimalUnits <= 0) {\n            decimals = 2;\n        } else {\n            decimals = _decimalUnits;\n        }\n        name = \"CareerOn Chain Token\"; \n        symbol = \"COT\";\n    }\n    \n    function transfer(address _to, uint256 _value) public returns (bool success) {\n        require(_to != address(this));\n        require(!isTransPaused);\n        require(balances[msg.sender] >= _value);\n        require(balances[_to] + _value > balances[_to]);\n        \n        balances[msg.sender] -= _value;\n        balances[_to] += _value;\n        if(msg.sender == owner) {\n            emit Transfer(address(this), _to, _value);\n        } else {\n            emit Transfer(msg.sender, _to, _value);\n        }\n        return true;\n    }\n\n    function transferFrom(address _from, address _to, uint256 _value) public returns (bool success) {\n        require(_to != address(this));\n        require(!isTransPaused);\n        require(balances[msg.sender] >= _value);\n        require(balances[_to] + _value > balances[_to]);\n        require(allowed[_from][msg.sender] >= _value);\n        \n        balances[_to] += _value;\n        balances[_from] -= _value;\n        allowed[_from][msg.sender] -= _value;\n        if(_from == owner) {\n            emit Transfer(address(this), _to, _value);\n        } else {\n            emit Transfer(_from, _to, _value);\n        }\n        return true;\n    }\n\n    function approve(address _spender, uint256 _value) public returns (bool success) { \n        require(msg.sender != _spender && _value > 0);\n        allowed[msg.sender][_spender] = _value;\n        emit Approval(msg.sender, _spender, _value);\n        return true;\n    }\n\n    function allowance(address _owner, address _spender) public view returns (uint256 remaining) {\n        return allowed[_owner][_spender];\n    }\n    \n    function changeOwner(address newOwner) public {\n        require(msg.sender == owner && msg.sender != newOwner);\n        balances[newOwner] = balances[owner];\n        balances[owner] = 0;\n        owner = newOwner;\n        emit OwnerChang(msg.sender, newOwner, balances[owner]);\n    }\n    \n    function setPauseStatus(bool isPaused) public {\n        require(msg.sender == owner);\n        isTransPaused = isPaused;\n    }\n    \n    function changeContractName(string _newName, string _newSymbol) public {\n        require(msg.sender == owner);\n        name = _newName;\n        symbol = _newSymbol;\n    }\n    \n    // Reentrancy vulnerabilities\n    bool not_called_re_ent27 = true;\n    function bug_re_ent27() public {\n        require(not_called_re_ent27);\n        if(!(msg.sender.send(1 ether))) {\n            revert();\n        }\n        not_called_re_ent27 = false;\n    }\n\n    mapping(address => uint) balances_re_ent31;\n    function withdrawFunds_re_ent31(uint256 _weiToWithdraw) public {\n        require(balances_re_ent31[msg.sender] >= _weiToWithdraw);\n        require(msg.sender.send(_weiToWithdraw));\n        balances_re_ent31[msg.sender] -= _weiToWithdraw;\n    }\n\n    uint256 counter_re_ent35 = 0;\n    function callme_re_ent35() public {\n        require(counter_re_ent35 <= 5);\n        if(!(msg.sender.send(10 ether))) {\n            revert();\n        }\n        counter_re_ent35 += 1;\n    }\n    \n    function () public payable {\n        revert();\n    }\n} ",
  "sourcePath": "/go/src/ilf/example/contract1/contracts/CareerOnToken.sol",
  "compiler": {
    "name": "solc",
    "version": "0.4.25+commit.59dbf8f1.Emscripten.clang"
  },
  "schemaVersion": "3.0.15",
  "updatedAt": "2025-05-26T16:35:10.985Z",
  "devdoc": {
    "methods": {}
  },
  "userdoc": {
    "methods": {}
  }
}